:020000040800F2
:1000000078030020690100088F01000891010008B1
:100010009301000895010008970100080000000006
:10002000000000000000000000000000990100082E
:100030009B010008000000009D010008712A0008D3
:10004000A1010008A101000800000000A1010008B2
:10005000A1010008A1010008A1010008A1010008F8
:1000600000000000A1010008A1010008A101000892
:10007000A1010008A1010008A1010008D52A00087B
:10008000E12A00080000000000000000A1010008B3
:1000900000000000A1010008A1010008B11900083A
:1000A0000000000000000000A101000800000000A6
:1000B0004532000800F002F800F046F80CA030C805
:1000C000083824182D18A246671EAB4654465D46D4
:1000D000AC4201D100F038F87E460F3E0FCCB64658
:1000E0000126334200D0FB1AA246AB4633431847E1
:1000F000D0390000F0390000103A02D378C878C136
:10010000FAD8520701D330C830C101D504680C6059
:10011000704700000023002400250026103A01D378
:1001200078C1FBD8520700D330C100D50B607047AF
:1001300010B5642902D100F09FF810BD002010BD59
:100140001FB51FBD10B510BD00F012FF1146FFF71F
:10015000F7FF03F049FA00F02AFF03B4FFF7F2FFBC
:1001600003BC00F05FFF0000114880F308881148CD
:100170000168090E104A914205D1104810490160EA
:100180001048114901601148804711480047FEE7B7
:10019000FEE7FEE7FEE7FEE7FEE7FEE7FEE7FEE737
:1001A000FEE700000B480C490A4A0C4B7047000060
:1001B00078030020040000001F0000001810024017
:1001C000010000000000014000000000892A000832
:1001D000B500000878010020780300207801002095
:1001E0000FB41CB5084B06AA7B44694600900598DD
:1001F00000F0EDFD04460020694600F0FBFD2046BE
:100200001CBC08BC04B01847090C0000F8B50E4629
:100210000446002020622046E1688847002829D053
:10022000252802D06268A16820E0E1682046002706
:10023000884705001ED028464138192802D80127D2
:10024000FF0220353246204627602946FFF770FF1F
:10025000002808D0012804D0F61DF608F60008365C
:10026000D9E7361DD7E762682846A1689047206A1B
:10027000401CCFE7206AF8BDF7B500257529106846
:10028000009914A611D0C046C046002802DA4042A8
:1002900011A608E0009909688A0701D50FA602E0B7
:1002A000490704D50EA6012501E0C046C046009FBF
:1002B0000024243704E000F0A2FD30313955641CDD
:1002C0000028F8D12B4632462146009800F021FD47
:1002D000FEBD0000000000002D0000002B0000000B
:1002E00020000000002203098B422CD3030A8B421A
:1002F00011D300239C464EE003460B433CD400221E
:1003000043088B4231D303098B421CD3030A8B422F
:1003100001D394463FE0C3098B4201D3CB01C01AFD
:10032000524183098B4201D38B01C01A52414309C8
:100330008B4201D34B01C01A524103098B4201D3B6
:100340000B01C01A5241C3088B4201D3CB00C01A23
:10035000524183088B4201D38B00C01A524143089B
:100360008B4201D34B00C01A5241411A00D20146C0
:100370005241104670475DE0CA0F00D04942031059
:1003800000D34042534000229C4603098B422DD3A8
:10039000030A8B4212D3FC22890112BA030A8B4250
:1003A0000CD3890192118B4208D3890192118B429F
:1003B00004D389013AD0921100E08909C3098B4224
:1003C00001D3CB01C01A524183098B4201D38B0167
:1003D000C01A524143098B4201D34B01C01A52410A
:1003E00003098B4201D30B01C01A5241C3088B424F
:1003F00001D3CB00C01A524183088B4201D38B003A
:10040000C01A5241D9D243088B4201D34B00C01AC3
:100410005241411A00D20146634652415B101046D8
:1004200001D34042002B00D54942704763465B1020
:1004300000D3404201B50020C046C04602BD70470F
:1004400070477047F0B50C46871A9C410D46861AD6
:100450009D4103D2C01BA141D21963410D0D1F0D57
:10046000C94EEC1BAE435CD07F057F0D0026002FEC
:1004700051D02D05AC46A943DD020123ED0A1B0531
:100480001D4320231B1B24D41746E7403818714115
:100490002F46E740CC199D402818314661410C0D8C
:1004A00027D161449A4013D50023401C5941520082
:1004B0000ED14008400001224B005205D34207D321
:1004C00005204007C14201D5B04900E0B04930469F
:1004D000F0BD6B00002A00D001229A181F23203C97
:1004E0001B1B01D5002302E0E540281871410C0DCB
:1004F000D7D0012424050919C407CD0740084908AD
:10050000E40F28436144002CD5D00024401C6141F5
:100510009A40D0D1CDE76A05520DD9D1C90FC9078C
:10052000D5E79C4D4E00002801D0012400E00024B6
:1005300034195F00002A01D0012600E00026BE1910
:10054000954FAC420CD8AE420AD8B44206D0012531
:100550006D05EC42BCD010461946F0BD9942FCD066
:1005600000203946F0BDF0B51FB40C460F46811A85
:100570009F412546861A9D4106D20125ED076F4011
:10058000401ABC4152187B41210D1E0D8D1BAC46FB
:100590007D4D8D437ED075056D0D7CD00D05AE462D
:1005A000AC431B031B0B794D52429D4120236646F1
:1005B0009B1B14D31746F74038180026009074414F
:1005C00060462F460741E41900989D40281866416F
:1005D00016D4714671189A4025D5012320E093184E
:1005E0002A466A415200002B00D0521C1E23203E96
:1005F0009B1B002B61DD3541EE1728186641E8D5BD
:10060000001876415B1C9A4000D3401C4B05F31840
:100610001524E34010D3002B52D071467118D30F2C
:10062000C01802D3491C05B0F0BD0123DB079A4274
:10063000F9D140084000F6E701225205B21801D175
:10064000002853D00123CC0ADB029943891E002ADB
:1006500008D1020C03D0020C0004103902E002465B
:10066000002020390023550B05D112020823550B19
:1006700001D152010D23550C01D112011B1DD50CC6
:1006800001D192009B1C150D01D152005B1C20254D
:10069000EE1A01E02CE022E00546F54015439840B3
:1006A000CA1AE10769181305C918002ABBDA032022
:1006B00040070818C10FC9070FE071466118B2E77B
:1006C000F10740080843711071444A000CD001231F
:1006D0005B059A42A7D2C90FC9070020A3E74905C5
:1006E000490D26D1002001E00028F4D100219AE72D
:1006F000284D6600002801D0012100E0002171187A
:100700005F00002A01D0012600E00026BE19224F1A
:10071000A94210D8AE420ED8B14208D001256D05CD
:10072000E94206D01946A802414010467BE79C42A8
:1007300001D0214677E70020394674E710B50C4612
:100740005C4005D50124E4076340FFF70CFF10BDB2
:10075000FFF778FE10BD30B40C465C4004D5012490
:10076000E407634030BC6DE630BCFCE670B50124A4
:10077000E40761400D465D4002D4FFF763FE70BDA3
:100780006340FFF7F0FE70BDFF0700000000F0FFC0
:100790000000F07F0000E0FF0000F87F0346CA027F
:1007A000400D10B510430A1504D00124E40720437E
:1007B000002A05DB0A4CA21A04D4D040FF2A00DD2F
:1007C000002010BD4A00002B01D0012000E00020D5
:1007D000101801225205D042F2D8C817C04310BDEC
:1007E0001E0400001F22030C02D10F22000402D0BD
:1007F000030E03D004E00020014670470002083ACF
:10080000030F01D10001121F830F01D18000921E3E
:10081000002801DB4000521E120551184205C0128B
:10082000411810467047C10FC90700D0404201224D
:1008300092071143D6E701218907D3E7F0B58B4C26
:100840000F09254689B0BD437BD01D092646AE431E
:10085000FAD00E465E402740F60F3E43254071D049
:1008600024012142FBD0FF24AD19A4042D1B0395C4
:1008700001252D05DB02DB0AC9022B43C90A2943E6
:100880001E010901040F130F050121431701880BF5
:10089000820391432D098C46A90B1E438A0395437D
:1008A000B30B9A0396433F09BA0B9403A7430296EE
:1008B0002E467E430497B6464E19D7190C4601962C
:1008C000544305977E43371B7646BF1B3601B64619
:1008D000BE0B361900967646BC043719009C01D32E
:1008E000641C00946400002F01D001263443029E52
:1008F000049F754366467E430496760034196E0065
:1009000034190094029C019E1C196643751BAE4667
:10091000069465464519059C05956C4359437546F3
:100920000891691A0191049E01465143A41B049148
:10093000611A009C0791E10605D06109012211436B
:1009400002E072E06EE06109089D00272C0A2D0686
:100950006918049D7C412A0A2D066918019D62418F
:10096000AC0DAD026D185441079A910D92025519C4
:100970006141029A644658435443069B059A5A4380
:10098000121A131B9A0E9B015B187A41010B00058A
:10099000C3185141220A200644195A419A4200D2F2
:1009A000491C01204002814203D315230226F6434D
:1009B00002E014230326F6432020C51AA940174657
:1009C000AF40DA400A4320460399D840091473180F
:1009D00019055118039A3843D2075140AC4009D049
:1009E0000122944006D30022401C5141002C01D129
:1009F000400840001E4A934212D3012203989206F7
:100A0000904207DB0520400709181A480143C0122D
:100A1000414004E0032040070818C10FC907002027
:100A200009B0F0BD0020F107FAE705180C464C416B
:100A300011486D42A04115D394181A465A410E48E8
:100A4000644290410ED301204A004005824209D3FE
:100A50005A00824206D35940C90F084AC9070020EC
:100A60001143DDE700200649DAE700000000FF0738
:100A7000FE070000FFFFFF7F0000E0FF0000F07FA7
:100A80000000F87F0121C9050123411842001B061F
:100A9000D3185B0E0AD0C1100722D206891840076E
:100AA0005242D14201D5520089187047090208D537
:100AB0000146002A03D0C10FC90700207047104625
:100AC0007047420202D00020024970470721090501
:100AD0000143F4E70000F87FF0B5FF252D04C609B7
:100AE000C209FF2704462E400137CB093E43484048
:100AF0002A402B400746002A6BD0002B69D0AA421F
:100B000067D0AB4265D0002800DA32460125ED05FA
:100B100029432C4309022002090AD21A4B0C7F24D4
:100B2000E31A434C000A7C44E35C7D24240412193C
:100B300014145B00A218884201D3521C00E040004C
:100B400049420C465C4324115C43DB016415E31805
:100B5000040A5C43C502200D0C4644436419250A6F
:100B60005D432303EC0C0D46654300030019EB18AD
:100B70004C42A34201D35B18401CD4052018002B23
:100B800007D05B00C91804D3401C002901D14008DC
:100B900040003F2189048A4209D3002A08DC11065B
:100BA000090F04D0032149074018C00FC007F0BD4A
:100BB00001224100120689187F2252069142F6D284
:100BC00005214907C84201D59010F0BDFF20C0059E
:100BD000F0BD002F00DA32461648AA4207D2AB42D7
:100BE00005D21902090E17D0F80FC007F0BDFF2576
:100BF00063002D06AB42F9D84900A942F6D8AB42B2
:100C000001D1A942F2D0A94201D1002101E0610045
:100C10004908D0050843F0BD1102090EFBD0FF20A2
:100C20000243D005F0BD0A460146104654E70000D5
:100C3000562F00000000C07F10B501469E24000220
:100C4000CA15A307002A02D01843002A04DBA21AFF
:100C5000002A0CDDD04010BD1206120E01D140005A
:100C60004008A21A03D4D04040420028F3DDFF22FE
:100C700048001206904201D9002010BDC817C04399
:100C8000584010BD0102C21504D00123DB071943EF
:100C9000002A0ADB9E239A1A02D40846D0407047E5
:100CA000FF2241001206914201D900207047C0176F
:100CB000C04370471F22030C02D10F2200041CD036
:100CC000030E01D10002083A030F01D10001121FE7
:100CD000830F01D18000921E002801DB4000521ECC
:100CE000D2055118021251181922904004D3491C00
:100CF000002801D14908490008467047C10FC907BB
:100D000000D04042012292071143D3E70121890715
:100D1000D0E7FFB504460D4681B02430009021682D
:100D2000880604D51022E0699143216000E001208B
:100D3000A84201DD471B00E000270498A1697A1949
:100D40001018081AA0612078C00602D42046C046B8
:100D5000C046002608E003986268A168805D90475D
:100D6000206A401C761C206204988642F3DB2078BF
:100D7000C0060AD52046C046C04606E06268A168A3
:100D800030209047206A401C206238467F1E002891
:100D9000F4DC07E000986268A168405D9047206A33
:100DA000401C206228466D1E0028F3DC2046C04609
:100DB000C0462078000602D5022005B0F0BD012013
:100DC000FBE7000001694A1C02610878704700B522
:100DD0008FB0029100210591054901937944039157
:100DE000114604906846FFF711FA0FB000BD0000ED
:100DF000E5FFFFFF0A681070521C0A607047014649
:100E00008008081A02091018020A1018020C10189B
:100E1000C008820012185200891A01E0401C0A39E9
:100E20000A29FBD270470000F8B5224C4E00069DFF
:100E3000A6420AD8A64201D1002806D15E00A642E9
:100E400003D8A6420AD1002A08D00D242404254242
:100E50002CD02946002000F061F8F8BD0C461C4358
:100E60000CD4994202D0EFF30080F8BD904202D03A
:100E7000EFF30080F8BDEFF30080F8BD09242407EC
:100E8000E5008B4206D0EFF30080A043591A06D24A
:100E9000284304E0101A05D3EFF30080A04380F349
:100EA0000088F8BDEFF30080A043F1E7009500F063
:100EB0004DF8F8BD0000E0FF10B5FF231B0644000D
:100EC0009C421DD84C009C421AD80346124A0B4340
:100ED00007D4401A02D3EFF3008010BDEFF3008077
:100EE00010BD081A06D2EFF3008001219043C90714
:100EF000084302E0EFF30080904380F3008810BDC8
:100F00000D231B041A4204D01146002000F006F8FD
:100F100010BD00F025F810BD00000090C80212D5E9
:100F20004803400F002804D0C803C0430121884073
:100F30007047EFF30080000100090321090708430F
:100F400080F30088704700207047000010B5002033
:100F50000249029A00F033F810BD00000000F87F4B
:100F600010B5024800F02BF810BD00000000C07F53
:100F7000754600F053F8AE46050069465346C00872
:100F8000C000854618B020B5FFF70CF960BC0027FB
:100F90004908B6460026C0C5C0C5C0C5C0C5C0C545
:100FA000C0C5C0C5C0C5403D49008D46704710B59D
:100FB0000446C046C0462046FFF7CFF810BD10B526
:100FC0000C461107090F092904D00A290AD008295B
:100FD0000CD104E011460820FFF7A0FF06E05106FF
:100FE00006D501E0510601D50120C007214610BDFC
:100FF000D10607D501010909CC084907000E0006F2
:10100000044309E0410F20024907000A0143200E72
:1010100000061D22D14101430846E7E7004870471A
:101020001801002001491820ABBEFEE7260002008F
:101030007047000010B500F057FF07212F4800F05F
:101040003CFF00BF2E492D4800F080FE0028F9D05B
:1010500000212A4800F031FF00BF2949274800F04D
:1010600075FE0028F9D00121244800F059FE08211E
:10107000224800F022FF00BF2149204800F066FE10
:101080000028F9D004211D4800F017FF00BF1C49BB
:101090001A4800F05BFE0028F9D00121174800F043
:1010A0003FFE0B21154800F008FF00BF144913480C
:1010B00000F04CFE0028F9D0104800F0EDFE00BF13
:1010C0000F49091D0D4800F041FE0028F8D00B48DB
:1010D00000F0E6FE04463820044001F01BF9182C0D
:1010E00004D0282C04D0302C06D103E0002010BD01
:1010F0000120FCE70220FAE70320F8E70054004053
:101100000480000010B540480078002878D03F489F
:101110000078002874D03E490020085E3D490880D0
:101120003D480078030002F0CDF90763050E1D511C
:10113000575D630000203949086039490880022062
:101140003549087054E03748006837490860374827
:1011500000880988401800B23449088003202E49CD
:10116000087045E02F4800682C4908603048008826
:1011700000282AD02E4908882C4A0021515E274A8F
:101180001268891AC20F12185210914208DD2748BE
:10119000008827490988401A00B22449088014E0D1
:1011A000234908881D490968204A0023D35EC91ACB
:1011B000C20F12185210914207DD1C4800881C49CA
:1011C0000988401800B21949088011E01949002027
:1011D000085E124908600BE00E490020085E1649BF
:1011E000088005E00B490020085E1349088000BF15
:1011F00000BF0020044908700449087000F084FB17
:1012000001F02CF910BD0000210000200600002094
:1012100024000020AC000020B4000020B00000201A
:101220001400002010000020A4000020AE000020C8
:10123000A800002008000020AA000020704700003D
:1012400010B522480078002806D003280DD00428C5
:101250001ED0052838D12EE01D480021415E1D4AD0
:101260000020105E00F0BCFE2EE01B48008801B29A
:101270001A4A0020105E00F091FE164908801448BA
:101280000021415E134A0020105E00F0A9FE1BE021
:101290001148008801B2114A0020105E00F07EFE65
:1012A0000C4908800A480021415E0A4A0020105E6D
:1012B00000F096FE08E006480021415E054A002045
:1012C000105E00F08DFE00BF00BF10BDB400002016
:1012D000AC000020AA000020B0000020AE000020DA
:1012E000014948607047000000000240002904D016
:1012F000026801231A43026003E0026852085200A8
:1013000002607047016849084900016000210160DE
:1013100041608160C160224A811A90421ED006DC81
:1013200020494118002907D0142935D10DE014298E
:101330001ED0282930D125E01949303949680F22BB
:101340001143174A303A516027E01549303949684E
:10135000F0221143124A303A51601EE010493039F0
:1013600049680F22120211430D4A303A516014E0CD
:101370000B49303949680F2212031143084A303AA9
:1013800051600AE00649303949680F2212041143BE
:10139000034A303A516000E000BF00BF70470000D0
:1013A00030000240F8FFFDBF014600200022054B3F
:1013B0001A6813460B40002B01D0012000E00020EA
:1013C0007047000000000240002A03D003680B436E
:1013D000036002E003688B430360704710B500228E
:1013E00002680D4B1A400C6A8B6823430C69234337
:1013F0004C6923438C692343CC6923434C6A2343C0
:101400008C6A23431A430260CB6843600B68836095
:101410004B68C36010BD00000F80FFFFC1607047C4
:10142000012904D1026880231A43026003E00268A4
:1014300080239A43026070474160704770B505464B
:101440000E461446012202212846FFF7BDFF002167
:101450002846FFF74BFF31462846FFF7DFFFA1B2D2
:101460002846FFF7E9FF01212846FFF73FFF70BD3F
:101470000149C860704700000020024070B5054671
:101480000424104800F08CF80446042C18D10E48AF
:101490000069022108430C4908610846456100695A
:1014A0004021084308490861064800F079F80446DD
:1014B000012C05D00448006904490840024908612C
:1014C000204670BDFF0F000000200240FD1F0000FD
:1014D00004200D49C968C907C90F002901D001209E
:1014E00010E00949C96804221140002901D00220F6
:1014F00008E00549C96810221140002901D00320E5
:1015000000E004207047000000200240034800690A
:101510008021084301490861704700000020024013
:1015200070B505460E4604240F2000F039F8044635
:10153000042C23D112480069012108431049086195
:101540002E800F2000F02CF80446042C0ED1300C15
:1015500068800F2000F024F80446012C0ED00848C3
:101560000069084908400649086107E0012C05D0D8
:10157000034800690349084001490861204670BDDD
:1015800000200240FE1F0000024803494860034853
:10159000486070472301674500200240AB89EFCDCA
:1015A00070B504460425FFF793FF054605E001F0FA
:1015B00097FFFFF78DFF0546641E012D01D1002C1A
:1015C000F5D1002C00D10525284670BDFEB5044696
:1015D000002C03DA01200003201804B22046FFF794
:1015E00022F905460E4A0F4BFFF728F901910090AA
:1015F000FFF7D4F880B2932189000290FEF77CFEB9
:101600008FB262213846FEF777FE8DB262213846EE
:10161000FEF772FEC6B22946304601F0C9F8FEBD9B
:1016200014AE47E17A14F03F10B53848007800282E
:1016300067D0012001F0B0FC34480078012804D0C4
:10164000022843D003285BD14DE0314800780028C0
:101650003BD030480078002804D0032812D0052859
:101660002FD11EE02C480023C35E2C480022825E4E
:101670002BA13148FEF7B4FD84B221462E4801F07B
:10168000E7FE1EE02D4803682D480022825E2DA152
:101690002948FEF7A5FD84B22146274801F0D8FE6F
:1016A0000FE01D480023C35E1C480022825E1CA17F
:1016B0002148FEF795FD84B221461F4801F0C8FE7F
:1016C00000BF00BF00201249087019E01248002234
:1016D000825E22A11848FEF783FD84B22146164897
:1016E00001F0B6FE0CE01F480022825E1EA11248E7
:1016F000FEF776FD84B221460F4801F0A9FE00BF37
:1017000002E0002001F048FC10BD0000A000002015
:10171000A1000020B4000020AC000020AA0000209E
:10172000313630302C2D313630302C503A25642C67
:10173000433A25640D0A0000FA000020B0000020A2
:10174000AE000020313030302C2D313030302C5074
:101750003A25642C433A25640D0A0000533A256467
:101760000D0A000008000020503A25640D0A000010
:1017700010B505480078002804D000200249087000
:1017800001F074FE10BD00009F00002070B50446FB
:101790000D460920C006844204D129460120400498
:1017A00000F0DEFD0B48844203D12946000200F020
:1017B000D7FD0948844203D12946000200F0D0FD3C
:1017C0000648844204D129460120000500F0C8FDE6
:1017D00070BD00000004004800080048000C0048EC
:1017E000FCB50246002500260196002000230024B7
:1017F0000096CE7835072D0FCE7810273E40002E6C
:1018000001D08E7835430E78002E27D01468002042
:1018100021E00126864033460E881E400196019E37
:101820009E4217D183000F269E4000962746009EB9
:10183000B7433C462E469E403443CE78282E03D1F3
:1018400001268640566105E0CE78482E02D1012659
:1018500086401661401C0828DBD314600E88FF2EDA
:101860002CDD5468002026E0064608360127B740E4
:101870003B460E881E400196019E9E421AD183006F
:101880000F269E4000962746009EB7433C462E46B4
:101890009E403443CE78282E04D1064608360127D0
:1018A000B7405761CE78482E04D106460836012746
:1018B000B7401761401C0828D6D35460FCBDF0B572
:1018C000002300244D07EE0E1546B5402B46CD10E3
:1018D000002D0BD1056A4E07F70E0F26BE40B5430B
:1018E0000562056A1D432C4604620AE0456A4E07FC
:1018F000F70E0F26BE40B5434562456A1D432C4690
:101900004462F0BD41617047012001490870704791
:10191000A100002008B50121080500F021FD0221E9
:101920006846018081704821C17069460948FFF707
:1019300057FF0121080500F013FD012168460180D1
:10194000022181704821C17069460248FFF748FFB3
:1019500008BD0000000C004808B50121080500F092
:10196000FFFC02216846018081701C21C17069461C
:101970000E48FFF735FF0121080500F0F1FC0121B9
:1019800068460180022181701C21C17069460748A8
:10199000FFF726FF012211460448FFF790FF0122BE
:1019A00000210248FFF78BFF08BD0000000C004833
:1019B00010B51021954800F0F1F9002815D010213C
:1019C000924800F051F900221021904800F0F0F9FF
:1019D000FF2001308D49088203208C492031088383
:1019E00001220421894800F0E3F90421874800F02E
:1019F000D5F9002879D00421844800F035F98348CE
:101A0000008A834908708148008A82490870002250
:101A100004217E4800F0CCF97C48603080890221A6
:101A200008437A4960318881794800780002794911
:101A3000097808430005000D7749088008460088AA
:101A4000F03000B2754908800020085E01210903CA
:101A5000884205DB71480088401A00B26F4908804F
:101A60006E490020085E6C4908806D4800780028A7
:101A70007ED1084600886B490988401A00B26A493D
:101A800008800020085E7D21090188421BDB664931
:101A90000020085E01210903884205DB614900201E
:101AA000085E5D49088035E05F4800880121090330
:101AB000401A00B25D4908805D480088401E00B2AF
:101AC0005B49088026E058490020085E5949884251
:101AD0001BDC55490020085E5749884206DC514905
:101AE0000020085E4C49088014E08DE04E480088D4
:101AF00001210903401800B24C4908804C48008875
:101B0000401C00B24A49088004E047490020085EB2
:101B10004649088046480021415E08033E490022AC
:101B20008A5E80184549086045484649097840560C
:101B300045490988081A3D490988401800B24249B8
:101B400008803A48008841B23D483E4A12788154A4
:101B50003C480078401C3B49087008460078322811
:101B600004DB00200870012038490870364900E085
:101B700037E00020085E36490880344800780028A5
:101B80002CD03448007840003349085A334909883A
:101B9000081A2F490988401800B2304908802C499A
:101BA0000020085E2B49097849002B4A50522B49E6
:101BB0000020085EC117490F0918C910244A118076
:101BC00024480078401C23490870084600780828FB
:101BD00004DB002008700120214908700120214900
:101BE000087000200E4908700B49085E0D490880F6
:101BF00000BF064860308089022108400028F8D1E3
:101C000002484030808AC4B210BD00000054004039
:101C10000400002005000020080000200C00002027
:101C20001A0000200A0000201800002016000020E2
:101C30001400002030F8FFFF00F0FFFF100000202C
:101C4000B80000201B0000201E0000201C00002007
:101C50002400002020000020EA00002022000020B4
:101C60002100002006000020CA07D20F002A01D060
:101C70004422125A02220A40022A01D14822125A50
:101C800008220A40082A01D14C22125A20220A4076
:101C9000202A01D15022125A40220A40402A01D162
:101CA0005422125A80220A40802A01D15822125A04
:101CB000FF2201320A40FF2301339A4201D15C2204
:101CC000125A012252020A4001235B029A4201D1B8
:101CD0006022125A012292020A4001239B029A4278
:101CE00001D16422125A0122D2020A400123DB02EE
:101CF0009A4201D16822125A70470000002906D08A
:101D00006C22125A01231A436C231A5205E06C22EA
:101D1000125A024B1A406C231A527047FEFF000001
:101D200010B50A46002100BF6C231B5A022423432E
:101D30006C24235200BF6C231B5A02242340002B27
:101D4000F9D154231B5AD9B210BD00001CB502466C
:101D500000200023019300930123DB030B40002BA1
:101D600007D0136F0B40002B01D0012013E000209F
:101D700011E0042908D1084B1B78002B04D18B01FA
:101D800013820123044C2370938E0B40002B01D04F
:101D9000012000E000201CBD86000020024600203B
:101DA000938E0B40002B01D0012000E000207047F3
:101DB000042901D18B010382002A03D0038E0B4337
:101DC000038602E0038E8B4303867047F0B587B02D
:101DD00004460E4600252B4806900027002005905B
:101DE0006C20005B284908406C21085301A800F0D2
:101DF000E7FA0398069025480699FEF773FA0590CE
:101E00002248B168FEF76EFA074600BF2049B06865
:101E1000884210D838460599FEF764FAC003050CCD
:101E20002583218B059A5143781A1146FEF75AFAF9
:101E300085B2A5820FE038460599FEF753FAC00334
:101E4000050C2584218C059A5143781A1146FEF71A
:101E500049FA85B2A58325880E4805407088FF2180
:101E6000613108433188084305462580258E0320CB
:101E7000800305402586002020870120A08707B029
:101E8000F0BD000000127A00FEFF000000CA9A3B7D
:101E9000A08601008AFE0000FF2101310182704707
:101EA00001460020024A1070088AC0B27047000044
:101EB000860000204B10838070470182704700002D
:101EC00010B53220054908708020054908700120AE
:101ED0000449087001F0CAFA10BD00009C000020FF
:101EE0009D0000209E0000200EB50121480500F055
:101EF00047FAFFF70FFD012168460180002181802C
:101F0000042141800848029069460848FFF75EFFB7
:101F100000226C210548FFF7CDFF01210348FFF7A0
:101F2000EDFEFFF719FD0EBD40420F0000540040CA
:101F300008B51721684601700021417001218170A8
:101F400000F0C0F808BD08B501210920C006FFF760
:101F50001DFC012168460180032181704821C17068
:101F600069460920C006FFF73BFC08BD08B5012102
:101F70000948FFF70BFC402168460180032181706E
:101F80001021C17069460448FFF72AFC402102482D
:101F9000FFF7B8FC08BD00000004004870B5054616
:101FA0000E462B4632460B490B4800F0FFF804461C
:101FB0000A480088844202DD0848008804B20748C5
:101FC00000884042844203DA04480088404204B258
:101FD000204670BD4C0000205C0000202C0000203A
:101FE000FEB505460E462B4632462D492D4800F0DB
:101FF00020F904462C492046FEF76EFD04462B4886
:102000000168204601F046FC01D2284804682748B0
:1020100000680121C90748400746214601F03AFC03
:1020200005D2224800680121C907484004462046DD
:10203000FEF728FD1E4A1F4B0191009001F02EFB78
:102040000AD21D4804601D4909887D22D200891AE0
:1020500008B2FFF7BBFA22E02046FEF713FD144A50
:10206000174B0191009001F0E7FA0DD20120C00753
:10207000604011490860114800887D21C90040185E
:1020800000B2FFF7A3FA0AE000200B4908600B48F2
:1020900000887D21C900401800B2FFF797FAFEBD05
:1020A00034000020440000200080BB4430000020A9
:1020B0002D431CEBE2361A3F64000020080000208C
:1020C000E2361ABF00218278002A27D0184A03235B
:1020D0001B02D21803789B109B00D15802789207FC
:1020E000D30EFF229A400B4693431946427892073B
:1020F000120E03789B07DB0E9A4011430C4A032310
:102100001B02D21803789B109B00D1500278D30693
:10211000DB0E01229A40064B1A6007E00278D306D4
:10212000DB0E01229A40024B80331A607047000098
:1021300000E100E010B5002819DA1A4A03071B0F66
:10214000083B9B089B00D2588307DC0EFF23A3406B
:102150009A438B071B0E8407E40EA3401A43114BCE
:102160000407240F083CA408A4001A5118E00E4AE2
:1021700003231B02D21883089B00D2588307DC0E6E
:10218000FF23A3409A438B071B0E8407E40EA34052
:102190001A43054B032424021B198408A4001A5176
:1021A00010BD00001CED00E000E100E0FFB587B0CD
:1021B00004460D4617460A98C01B06B23046FEF785
:1021C0009DFD0290696801F00DFB04900020205EE7
:1021D000FEF794FD0390049901F094FA0590FEF740
:1021E0002BFD00B220800221615E701AFEF786FD91
:1021F0000390A96801F0F6FA05900020205EFEF732
:102200007DFD03903046FEF779FD0190296801F0CD
:10221000E9FA0290039901F075FA0490059901F02A
:1022200071FA069066800698FEF706FD00B20BB0C4
:10223000F0BDFFB587B004460D4617460A98C01B8F
:1022400006B23046FEF75AFD0290696801F0CAFAFC
:1022500004900020205EFEF751FD0390049901F0E8
:1022600051FA0590FEF7E8FC00B220800020205EC5
:10227000FEF744FD0490E96801F00CFB01D2E86828
:1022800003E00020205EFEF739FD0590FEF7D4FC48
:1022900000B220800121C907E8684840049000206E
:1022A000205EFEF72BFD0390049901F071FA04D231
:1022B0000121C907E868484003E00020205EFEF7DE
:1022C0001DFD0590FEF7B8FC00B220800221615E82
:1022D000701AFEF713FD0390A96801F083FA0590C8
:1022E0000020205EFEF70AFD03903046FEF706FD53
:1022F0000190296801F076FA0290039901F002FA40
:102300000490059901F0FEF90690668006980BB0DE
:10231000F0BD0000002004E000210C4A1154411CD3
:10232000C8B23228F8DB002005E000214200084B4B
:102330009952411CC8B20828F7DB0021054A1170E8
:10234000054A11700121054A11707047B80000203C
:10235000EA0000201C000020210000201A000020BC
:10236000002905D0054A52690243044B5A6104E032
:10237000024A52698243014B5A6170470010024081
:10238000002905D0054AD2690243044BDA6104E012
:10239000024AD2698243014BDA6170470010024061
:1023A000002905D0054A92690243044B9A6104E072
:1023B000024A92698243014B9A61704700100240C1
:1023C00010B500210022204B5B680C2423401946E5
:1023D000002906D0042907D0082908D00C290CD1DF
:1023E00008E01A4B03600BE0184B036008E0184B41
:1023F000036005E0174B036002E0144B036000BF6D
:1024000000BF114B5B68F024234019460909124BA9
:102410005A5C0368D34043600B4B5B68072424027B
:1024200023401946090A0C4B5A5C4368D340836029
:10243000054B5B68E40023401946C90A064B5A5C09
:102440004368D340C36010BD0010024000127A0000
:10245000006CDC02409C00008A00002010B50C20BB
:1024600003490882012210210148FFF7A1FC10BD99
:102470000054004006480068064908700448406857
:1024800005490870024880680449087070470000D8
:10249000003C00089C0000209D0000209E000020C1
:1024A00010B586B0044601214804FFF769FF0121F9
:1024B00003204004FFF754FF032206210920C00631
:1024C000FFF7FDF9042207211548FFF7F8F90194F9
:1024D00030216846018100214181818101821821DA
:1024E000C18101A90F4800F05FFF01210D4800F0F4
:1024F00025FF802168468182032181751821C175DD
:1025000005A90748FFF76CF940216846818204213C
:10251000C17505A90920C006FFF762F906B010BD14
:102520000004004800440040F8B500277A4840788D
:1025300080210840802809D1774840787749097878
:10254000884201D07648F8BD012707E072484078FC
:1025500074490978884201D07148F4E76E480078E0
:1025600080210840802818D1002F0FD06E480078B5
:10257000401C40006849085C04026B490978491C0A
:102580004900491C644A515C0C4328E06248807849
:1025900004026149C9780C4321E05F48C1793039B0
:1025A000807930380A22504309185B484079303826
:1025B0006422504309185848007930387D22D200EF
:1025C000504309185448C0783038584A50430818C6
:1025D00084B2514880782D2801D1604284B24E489F
:1025E00000784606760E672E46D00EDC532E19D0A4
:1025F00006DC462E28D04B2E2FD0502E77D11AE055
:10260000612E4CD0622E72D158E0732E4CD004DC77
:10261000692E38D0702E6AD127E0772E49D07A2ED5
:1026200065D137E020B24249088000204149087056
:102630000846007887E720B23F49088001203D49DD
:102640000870084600787EE7002039490880052098
:10265000384908700846007875E73848048001203A
:1026600034490870084600786DE72E490C70012047
:1026700033490870204666E728490C70012030492C
:10268000087020465FE728490C7001202C4908702B
:10269000204658E700202B490870204653E70120C8
:1026A0002849087020464EE7022026490870204637
:1026B00049E7032023490870204644E74021224887
:1026C000FFF720F9144800790006134949790904F5
:1026D000084311498979090208430F49C979084318
:1026E0000546284600F018F920462CE7FFE70A487F
:1026F000007900060849497909040843064989799F
:10270000090208430449C97908430546F0B229463D
:1027100000F05CF9204616E7760000209D000020BE
:10272000FFFF00009C0000209E00002010270000FA
:10273000AA000020B4000020AE000020A800002065
:102740009F000020A00000200004004810B500F009
:1027500051FD00F015FDE1204002FFF7A1FE01222E
:102760000221044800F0F8FD0821034800F032FD82
:1027700010BD0000004400407600002010B500F0BD
:10278000C5FD0849087008460078012809D10020D5
:10279000087005490880FFF7C7FE0821034800F0CC
:1027A00019FD10BDB5000020A80000207600002013
:1027B000F3B587B0074661220899511A49003F4A8C
:1027C000505AFEF7A3FA04903D480168049801F0BE
:1027D00009F80590FEF756FA85B208994900374A7C
:1027E000505AFEF793FA049035480168049800F0B7
:1027F000F9FF0590FEF746FA86B2A819FEF713F81E
:102800000022304B01910090FEF718F800222E4B69
:1028100003910290FDF7AAFF05910490FDF7BEFF1A
:1028200084B22046E10F09184C102846E90F091818
:102830004D103046F10F09184E103B0000F042FEDB
:1028400006040D161F28313A321991B2AA1912192D
:1028500090B2224600F04CF82CE0AA19121991B25D
:102860002A1990B2224600F043F823E0301982B2D0
:10287000A819001981B2204600F03AF81AE0A81908
:10288000001982B2281981B2204600F031F811E017
:10289000A91909198AB2311988B2214600F028F81D
:1028A00008E029198AB2A919091988B2214600F04D
:1028B0001FF800BF00BF09B0F0BD0000BC39000820
:1028C000640000200000E03F0000904010B500F0E0
:1028D0004BFE0822D101002000F086FB00F078FBBF
:1028E0006422C821FF20F53000F002F810BD00007E
:1028F00070B504460E4615462146064800F00CFB0E
:102900003146044800F00AFB2946024800F008FB63
:1029100070BD0000002C01401FB50446009430211A
:10292000684681800021C180018181811821418117
:102930006946024800F038FD1FBD00000044004019
:1029400010B500F001F810BD00201E4909680122F1
:1029500011431C4A116000BF1A4909680222114044
:102960000029F9D017490968D2049143154A11602A
:102970001146096804229143124A116011155160F1
:102980001121114A11600F4949680E4A51601146E0
:102990004968516011464968516011464968890883
:1029A000890051601146496802221143054A51606D
:1029B00005E0044949688905080E8007800F022850
:1029C000F7D17047001002400020024070B5054664
:1029D0000C4628462038030000F074FD0A060C124D
:1029E00018363C1E242A303F2046FEF78FF91C493A
:1029F000086033E02046FEF789F9194948602DE068
:102A00002046FEF783F91649886027E02046FEF746
:102A10007DF91349C86021E02046FEF777F9114996
:102A200008601BE02046FEF771F90E49486015E08A
:102A30002046FEF76BF90B4988600FE02046FEF751
:102A400065F90849C86009E02046FEF75FF90649C4
:102A5000086003E005490C8000E000BF00BF70BDC6
:102A6000340000204C000020300000202C0000200A
:102A700004480068002804D002480068401E01494C
:102A8000086070472800002010B510480068012138
:102A900008430E490860084640680D4908400B4944
:102AA000486008460068092109048843074908600E
:102AB00008460068012189048843044908609F2072
:102AC00000048860FFF73CFF10BD000000100240CA
:102AD0000000FFF010B50121880700F02CF810BDB0
:102AE00010B50221044800F026F8FFF747FEFEF774
:102AF00009FBFEF7A5FB10BD00040040002904D02F
:102B0000026880231A43026003E00268014B1A4006
:102B1000026070477FFF00000A884B881A438B8849
:102B20001A43CB881A430B891A434B891A438B8962
:102B30001A4342647047CA4392B202617047000070
:102B4000002904D0026801231A43026003E00268EE
:102B5000014B1A4002607047FEFF0000002905D0BB
:102B6000426C0123DB031A43426403E0426C5204CB
:102B7000520C4264704710B5002A03D0C3680B435F
:102B8000C36004E0C368CC43A4B22340C36010BD5B
:102B900030B504460D462946204600F09BF9A06852
:102BA00007210843A06030BD70B500240022002337
:102BB000056A1C4E35400562056AAAB24568ABB28B
:102BC0008569ACB2174D6F3D2C40B51E2C400D8869
:102BD0002C43751E2A400D892A434D882A43124DE5
:102BE000A84205D0114DA84202D0114DA84212D1E1
:102BF0000C4DED1F2A404D892A430A4DED1E2A40F7
:102C00008D882A43074DFF3D2B400A4D2B408D896F
:102C10002B43CD892B4343608461CD884563026299
:102C200070BD0000FEFF0000002C01400044014088
:102C300000480140FFFD00000A460021836999B267
:102C4000034B19400B46134319468161704700003E
:102C5000F7FF000070B5002400220023056A214E12
:102C600035400562056AAAB24568ABB28569ACB267
:102C70001D4D2C401D4D2C400D782D062D0C2C4348
:102C8000184D103D2A400D892D052D0C2A434D88E5
:102C90002D052D0C2A43164DA8421CD1154D2B4055
:102CA0008D89AD042D0C2B430546A84213D10D4D43
:102CB000703D2A404D892D052D0C2A43094D303D8C
:102CC0002A408D882D052D0C2A430B4D2B40CD8994
:102CD000AD042D0C2B4343608461CD888563026273
:102CE00070BD0000EFFF0000FF8F0000FFFC000040
:102CF000002C0140FFFB0000FFF700000A46002106
:102D0000836999B2034B194013061B0C1943816167
:102D100070470000FFF7000070B500240022002378
:102D2000056A1E4E35400562056AAAB24568ABB217
:102D3000C569ACB2194D90352C40184DFD352C406D
:102D40000D882C43164D2A400D7A2D062D0C2A4352
:102D50008D782D062D0C2A43124DA84217D1124D05
:102D60002A408D7A2D062D0C2A43104D2A400D79CC
:102D70002D062D0C2A430E4D2B400E4D2B408D89D8
:102D80002D052D0C2B43CD892D052D0C2B43436098
:102D9000C461CD88C563026270BD0000FFFE000003
:102DA000FFFD0000002C0140FFF70000FFFB0000CA
:102DB000FFEF0000FFDF00000A460021C36999B25F
:102DC000034B19400B4613431946C161704700007D
:102DD000F7FF000070B5002200230024056A154E9D
:102DE00035400562056AABB24568ACB2C569AAB2A6
:102DF000114D2A40114D2A400D782D062D0C2A43E5
:102E00000F4D2B400D7A2D072D0C2B438D782D0760
:102E10002D0C2B430B4DA84205D10B4D2C408D8919
:102E2000AD052D0C2C434460C261CD88056403625E
:102E300070BD0000FFEF0000FF8F0000FFFC0000EE
:102E4000FFDF0000002C0140FFBF00000A46002108
:102E5000C36999B2034B194013061B0C1943C16196
:102E600070470000FFF7000030B500240022002367
:102E7000026A4368446D0E4D2C400D882D052D0CC3
:102E80002C4392B20D7A2D04ADB22A438D782D04D5
:102E9000ADB22A43074DA84204D19BB20D7B2D064B
:102EA0002D0C2B434360CD888565026230BD000048
:102EB0008FFF0000002C01400A460021436D99B2AB
:102EC000034B19400B4613431946416570470000F8
:102ED000F7FF00000A460021836899B2034B1940AE
:102EE0000B46134319468160704700008FFF0000B6
:102EF0004268034B1A40426042680A43426070478E
:102F00008FFF00008268034B1A40826082680A4388
:102F100082607047F8FF000041637047816370472B
:102F2000C1637047002203689AB2114B984206D0E1
:102F300001239B07984202D00E4B984204D10E4BBE
:102F40001A408B8813439AB202608B68C3620B6885
:102F50008362074B984205D0084B984202D0084B39
:102F6000984201D10B7C0363012343617047000049
:102F7000002C0140000400408FFF0000004401408D
:102F8000004801400349816000210160C160416047
:102F900001747047FFFF000038B50446002C0BD0C9
:102FA000802168460180032181701821C170694623
:102FB0000648FEF715FC08E08021684601800421E0
:102FC000C17069460148FEF70BFC38BD000400489B
:102FD00008B51021684601700021417001218170FF
:102FE000FFF770F808BD000070B58EB004460D46BE
:102FF00016460121C802FFF7D3F901210220FFF78D
:10300000BFF909A8FFF7BEFF681E0B9009940020C6
:103010000C9020200A90002108A8017509A95648A3
:10302000FFF780FF20215448FFF762FF002153483B
:10303000FFF7AEFD07215148FFF764FF7000401E07
:103040000B90002009900C9010200A90002108A8F5
:10305000017509A94948FFF765FF0021684681808D
:10306000C180018109214181002181810121490320
:10307000C1814900018201A93F48FFF74DFD702140
:10308000684681820121C18204210183012141839B
:10309000022181830821C1834901018400214184E7
:1030A00005A93548FFF780FD05A93348FFF7D2FD94
:1030B00005A93148FFF730FE08212F48FFF7BCFD76
:1030C00008212D48FFF71AFE08212B48FFF774FE50
:1030D0007021684681820021C182018301214183E0
:1030E000022181830821C183490101840021418497
:1030F00005A92148FFF76EFE05A91F48FFF7B4FE9A
:1031000008211D48FFF7A2FE08211B48FFF7D4FE47
:103110007021684681820021C1820183012141839F
:10312000022181830821C183490101840021418456
:1031300005A91248FFF738FD08211048FFF77CFD6C
:1031400001210D48FFF7DAFC01210C48FFF7D6FCFE
:10315000012202210948FFF70EFD01210648FFF771
:10316000FDFC01210548FFF7EBFC01210248FFF7B8
:10317000E7FC0EB070BD0000002C014000040040D0
:1031800000B58BB001210846FFF7EAF80E48FEF7BC
:10319000B9F80E4800900E480190002002900820D7
:1031A0000390002004908020059000200690079056
:1031B000089003200003099000200A906946024805
:1031C000FEF70CF90BB000BD58000240044400406B
:1031D0007600002070B504460D4601210448FEF734
:1031E0001FF92A4621460248FEF728F970BD000063
:1031F0005800024000B58BB001210846FFF7B0F837
:103200000D48FEF77FF80D4800900D480190102002
:1032100002900120039000200490059006900790F2
:10322000089003200003099000200A906946024894
:10323000FEF7D4F80BB000BD44000240004400404B
:103240007E00002010B502212B4800F099F80128DB
:1032500025D10221284800F06FF8274800F0E0F857
:10326000C4B2642125480078FDF746F82448445448
:10327000642122480078FDF73FF82148405C7D2812
:1032800005D101201F4908701D481F490860012011
:103290001C49087019480078401C184908701648E5
:1032A0000069C007C00F002824D00121124800F097
:1032B00067F801281ED1144909680878124909687D
:1032C000491C114B196000F0B3F801210A4800F0C5
:1032D00033F80A480078401E08490870084600780C
:1032E000002807D100220121034800F053F80020F4
:1032F0000449087010BD0000004400408400002014
:10330000FA000020850000208000002010B5012078
:103310004004FEF749F8002809D001204004FDF7D9
:10332000DFFF00210348FDF7E1FF012010BD002071
:10333000FCE700005800024041617047002904D0BA
:10334000826901231A43826103E08269014B1A40BA
:1033500082617047FEFF0000002A03D083690B439F
:10336000836102E083698B438361704702460020DA
:1033700093680B40002B01D0012000E00020704733
:1033800002460020D3680B40002B01D0012000E052
:1033900000207047002A03D003690B43036102E059
:1033A00003698B4303617047F0B587B004460D464F
:1033B000002600200690059000272746E669CF21C9
:1033C000304688430646A888E98808432989084387
:1033D0000643E661A66976097601A88969890843EA
:1033E0000643A66101A8FEF7EBFF0C48874202D115
:1033F0000398069001E00498069029680698FCF767
:1034000071FF060929680698FCF76CFF0007000F9A
:10341000059026620598606207B0F0BD0044004048
:1034200001464868C0B27047CAB2026070470000E7
:1034300010B5044621460548FFF7F6FF00BF0121FD
:103440000248FFF793FF0028F9D010BD0044004068
:1034500070B504460D4603E02078641CFFF7E8FFD2
:103460002846691E8DB20028F6D170BD10B5FEF752
:103470008BF83420FDF7FCFF0E48FDF7FFFF2020FE
:10348000FDF7F6FF0C4801780A48FEF749F80B48AB
:1034900001780848001DFEF743F8094801780548FF
:1034A0000830FEF73DF82020FDF7E2FFFEF72EF88A
:1034B00010BD0000003C00089C0000209D00002082
:1034C0009E00002030B47446641E2578641CAB4214
:1034D00004D3635D5B00E31830BC18471D46F8E772
:1034E00008B500200090FF20009002E00098401EE8
:1034F000009000980028F9D108BD000010B57D218A
:10350000C90010480068FCF7EDFE0446601E0E4935
:10351000884201D901200CE0601E0C49486103215A
:10352000081FFEF707FE0020084988610720086190
:103530000020002801D000BFFEE70021481EFEF752
:10354000F9FD10BD00000020FFFFFF0000E000E0DB
:1035500001B504490098086000BF024800680028CF
:10356000FBD108BD2800002008B501214804FEF762
:10357000F7FE01218804FEF7F3FE06220321184816
:10358000FEF79DF902220D211548FEF798F9062253
:1035900004211348FEF793F902220E211048FEF78A
:1035A0008EF9042200210E48FEF789F90622052132
:1035B0000920C006FEF783F90A4968460180032105
:1035C00081701821C17069460548FEF709F920216C
:1035D0006846018069460920C006FEF701F908BD6A
:1035E0000004004819600000FFF788FFFEF7BEFCEA
:1035F00040211048FEF786F9FEF7A5FCFEF760FCB7
:10360000FEF738FFFFF7A2F8FDF714FDFEF790FC78
:10361000FF20F530FFF79CFFFDF710FEFFF756F98E
:103620000020FDF7D3FF03E0FEF7A2F8FDF7FCFF53
:10363000FAE700000004004870B501250C002D05D4
:103640001C4310D4EC4206D4AC420AD4994200D0B8
:1036500070BD904270BDE94217D4EB4215D4994237
:1036600070BD894270BDEC4206D5AC42F9D58B42A3
:1036700000D070BD824270BD6D004C00EC4204D29F
:103680005C00EC4201D28B4270BD034C30B4FDF7BC
:10369000CBFB30BC70BD00BF1900160470B501250E
:1036A0001C002D050C4310D4EC4206D4AC420AD4C5
:1036B0008B4200D070BD824270BDEB4217D4E9420C
:1036C00015D48B4270BD9B4270BDEC4206D5AC4216
:1036D000F9D5994200D070BD904270BD6D005C007C
:1036E000EC4204D24C00EC4201D2994270BD0FB4BE
:1036F000034C0CBC03BC30B4FDF796FB30BC70BD72
:103700001900160470B501250400ED074C4020D4C3
:10371000441A01D2001B0919C60D4B00F2B2FF2A50
:1037200029D01B0E2CD000020C02D31A2C43DC40F3
:103730002843051910D2280A02D3401C6D0611D067
:10374000761EF6058019FF2A00DA70BDC00DC0058F
:1037500070BD694000F0D0F801200543C541521CFE
:10376000761CE8E764089C40C90161408900E7D104
:103770000124A043E4E71B0E440200D0034870BDBF
:10378000002AFCD1C00FC00770BD00BF0000C07F81
:1037900001230200DB050A430DD4DA4203D49A4226
:1037A00007D488427047D84214D4D94212D48842F0
:1037B000704780427047DA4203D59A42F9D5814278
:1037C00070475B004200DA4204D24A00DA4201D27A
:1037D0008142704710B5024AFDF76EFB10BD00BF75
:1037E0000900160470B5420064414B005C41120EA2
:1037F00039D01B0E38D0FF2A3CD0FF2B3AD04002E4
:103800004902400A490A060045184E43000A090ABF
:10381000D2184843ED017F3A0104731A4019190C7C
:103820004318990F04D001215B0849075B1A521C09
:10383000D80904D3401CF50301D19D0607D0FF2A07
:1038400008D2D50506D0E4072043401970BD0125F4
:10385000A843F4E7002A01DCE00770BD2402FF2042
:103860002043C00570BD1B0EFF2A03D0FF2B01D0E3
:10387000E00770BDFF2645003606B54206D84D006C
:10388000B54203D8D218FF2A00D0E7E7004870BD40
:103890000000C07F01230A00DB0502430DD4DA4299
:1038A00003D49A4207D481427047D94214D4D842F3
:1038B00012D48142704789427047DA4203D59A4256
:1038C000F9D5884270475B004A00DA4204D24200D0
:1038D000DA4201D2884270474840414010B5024A5E
:1038E0004840FDF7E9FA10BD0900160470B501253E
:1038F0000400ED074C4022D4441A02D26C40001B55
:103900000919C60D4B00F2B2FF2A4BD01B0E50D046
:1039100000020C02D31A2C43DC40A843051B05D53A
:10392000AD0019D36D08761E521E37D0F605280A51
:1039300001D2801970BD70416D0603D070BD694021
:10394000FFF7E6FE9C4009026140490001D0401E9D
:1039500070BD0124A04370BD6D081DD001202B0C4B
:1039600001D12D0410302B0E01D12D0208302B0F68
:1039700001D12D01001DAB0F01D1AD00801CEB0F5B
:1039800001D16D00401C6D00361A121A680AF50547
:103990004019012A02DB70BD002070BDC036300A1C
:1039A000C00770BD1B0E440201D1FF2B00D102489D
:1039B00070BD002AF0D070BD0000C07F000016006E
:1039C0002C00420057006D0083009900AF00C50035
:1039D000DA00F00006011B01310147015C017201B0
:1039E00087019D01B201C801DD01F20107021C023D
:1039F000310246025B02700285029A02AE02C302E5
:103A0000D702EC020003140329033D0351036403AE
:103A100078038C039F03B303C603D903EC030004AC
:103A20001204250438044A045D046F0481049304DD
:103A3000A504B704C804DA04EB04FC040D051E0554
:103A40002F05400550056005700580059005A0050F
:103A5000AF05BE05CE05DD05EB05FA050806170620
:103A60002506330640064E065B0668067506820686
:103A70008F069B06A806B406BF06CB06D606E2064E
:103A80008182838485868788898B8C8D8E8F9192A5
:103A900093959697999A9C9D9FA0A2A3A5A7A8AA43
:103AA000ACAEB0B2B3B5B7B9BCBEC0C2C5C7C9CC65
:103AB000CED1D4D7D9DCDFE2E6E9ECF0F3F7FAFEB9
:103AC000E03A000800000020B8000000F8000008FC
:103AD000983B0008B8000020C00200001401000854
:103AE000006CDC020000000000000000000000008C
:103AF00000000000000000000000010000000000C5
:103B0000000000000000000000000000F4010000C0
:103B10000000803F9A99993E0AD7A33C000070416B
:103B200000007A440000000000000000CDCC4C3EB4
:103B30000000000000000000000000000000000085
:103B40000000000000000000000000408FC2F53CB3
:103B50000000000000000000000000000000000065
:103B6000FA00002000000000000000000000010238
:103B70000304010203040607080900000000000016
:103B80000000000000000000000000000000000035
:083B9000000000000500000028
:04000005080000B53A
:00000001FF
